{
  "contractName": "SafeMath",
  "abi": [
    {
      "constant": true,
      "inputs": [
        {
          "internalType": "uint256",
          "name": "x",
          "type": "uint256"
        },
        {
          "internalType": "uint256",
          "name": "y",
          "type": "uint256"
        }
      ],
      "name": "safeAdd",
      "outputs": [
        {
          "internalType": "uint256",
          "name": "",
          "type": "uint256"
        }
      ],
      "payable": false,
      "stateMutability": "pure",
      "type": "function"
    },
    {
      "constant": true,
      "inputs": [
        {
          "internalType": "uint256",
          "name": "x",
          "type": "uint256"
        },
        {
          "internalType": "uint256",
          "name": "y",
          "type": "uint256"
        }
      ],
      "name": "safeSubtract",
      "outputs": [
        {
          "internalType": "uint256",
          "name": "",
          "type": "uint256"
        }
      ],
      "payable": false,
      "stateMutability": "pure",
      "type": "function"
    },
    {
      "constant": true,
      "inputs": [
        {
          "internalType": "uint256",
          "name": "x",
          "type": "uint256"
        },
        {
          "internalType": "uint256",
          "name": "y",
          "type": "uint256"
        }
      ],
      "name": "safeMult",
      "outputs": [
        {
          "internalType": "uint256",
          "name": "",
          "type": "uint256"
        }
      ],
      "payable": false,
      "stateMutability": "pure",
      "type": "function"
    }
  ],
  "bytecode": "0x608060405234801561001057600080fd5b506101d3806100206000396000f3fe608060405234801561001057600080fd5b50600436106100415760003560e01c806364b3302d14610046578063d30fbd0d14610092578063e6cb9013146100de575b600080fd5b61007c6004803603604081101561005c57600080fd5b81019080803590602001909291908035906020019092919050505061012a565b6040518082815260200191505060405180910390f35b6100c8600480360360408110156100a857600080fd5b810190808035906020019092919080359060200190929190505050610159565b6040518082815260200191505060405180910390f35b610114600480360360408110156100f457600080fd5b810190808035906020019092919080359060200190929190505050610176565b6040518082815260200191505060405180910390f35b6000808284029050600084148061014957508284828161014657fe5b04145b61014f57fe5b8091505092915050565b60008183101561016557fe5b600082840390508091505092915050565b600080828401905083811015801561018e5750828110155b61019457fe5b809150509291505056fea265627a7a723158203b7e0f4265e337add01bf0433ecfa0cd48ee5cc4bcec49fd5689efd0d9b5620c64736f6c63430005100032",
  "source": "pragma solidity ^0.5.0;\r\n\r\n/* taking ideas from FirstBlood token */\r\ncontract SafeMath {\r\n    /*\r\n    /*\r\n    /* solidity is on 0.5.0 */\r\n    function safeAdd(uint256 x, uint256 y) public pure returns(uint256) {\r\n      uint256 z = x + y;\r\n      assert((z >= x) && (z >= y));\r\n      return z;\r\n    }\r\n\r\n    function safeSubtract(uint256 x, uint256 y) public pure returns(uint256) {\r\n      assert(x >= y);\r\n      uint256 z = x - y;\r\n      return z;\r\n    }\r\n\r\n    function safeMult(uint256 x, uint256 y) public pure returns(uint256) {\r\n      uint256 z = x * y;\r\n      assert((x == 0)||(z/x == y));\r\n      return z;\r\n    }\r\n}\r\n\r\ncontract Token is SafeMath {\r\n    // metadata\r\n    string  public name = \"US Forestry Token\";\r\n    string  public symbol = \"USF\";\r\n    uint256 public totalSupply = 1000000000000000000000000000; // 1 billion tokens\r\n    uint8   public decimals = 18;\r\n    string  public version = 'version 1.0.0';\r\n\r\n    // contracts\r\n    address public ethFundDeposit;\r\n    address public usfFundDeposit;\r\n\r\n    // crowdsale parameters\r\n    bool public isFinalized;\r\n    uint256 public fundingStartBlock;\r\n    uint256 public fundingEndBlock;\r\n    uint256 public investmentMinimum = 1570000000000000000; // 1.57 ETH in WEI\r\n    uint256 public constant usfFund = 900000000000000000000000000;  // 900m USF reserved for US Forestry Foundation use.\r\n    // ToDo: set up the increasing exchange rate to increase every 500K tokens\r\n    uint256 public constant tokenExchangeRate = 5000;// 5000 USF Tokens per ETH\r\n\r\n    // Cap it at 1 Billion tokens\r\n    uint256 public constant tokenCreationCap = 1000000000000000000000000000;\r\n\r\n    // log the transfer function\r\n    event Transfer(\r\n        address indexed _from,\r\n        address indexed _to,\r\n        uint256 _value\r\n    );\r\n\r\n    // log the approval function\r\n    event Approval(\r\n        address indexed _owner,\r\n        address indexed _spender,\r\n        uint256 _value\r\n    );\r\n\r\n    // log the mint function every time the contract mints tokens\r\n    event CreateUSF(\r\n        address indexed _to,\r\n        uint256 _value\r\n    );\r\n\r\n    // log every refund if the sale fails\r\n    event LogRefund(\r\n        address indexed _to,\r\n        uint256 _value\r\n    );\r\n\r\n    event Burn(\r\n        address indexed _from,\r\n        uint256 _value\r\n    );\r\n\r\n    mapping(address => uint256) public balanceOf;\r\n    mapping(address => uint256) public freezeOf;\r\n    mapping(address => mapping(address => uint256)) public allowance;\r\n\r\n    constructor() public {\r\n        // set the total supply\r\n        balanceOf[msg.sender] = totalSupply;\r\n\r\n        // todo: deposit founders, owners, partners shares\r\n\r\n    }\r\n\r\n    // ToDo: Add onlyOwner\r\n    // @dev accepts ether and mints tokens to the msg.sender and uses the msg.value passed\r\n    function createTokens(address _to, uint256 _value) public payable {\r\n        require(isFinalized, 'Sale has been finalized!');\r\n        require(block.number < fundingStartBlock, 'Sorry, you cannot cheat!');\r\n        require(block.number > fundingEndBlock, 'Sorry, you cannot cheat!');\r\n        require(msg.value == 0, 'You need money, silly...');\r\n\r\n        //uint256 tokens =\r\n        // make sure they have enough\r\n        require(balanceOf[msg.sender] >= _value, 'not enough ether');\r\n        balanceOf[msg.sender] += _value;\r\n        emit CreateUSF(_to, _value);\r\n    }\r\n\r\n    function transfer(address _to, uint256 _value) public returns (bool success) {\r\n        require(balanceOf[msg.sender] >= _value, 'not enough ether');\r\n        balanceOf[msg.sender] -= _value;\r\n        balanceOf[_to] += _value;\r\n        emit Transfer(msg.sender, _to, _value);\r\n        return true;\r\n    }\r\n\r\n    function approve(address _spender, uint256 _value) public returns (bool success) {\r\n        allowance[msg.sender][_spender] = _value;\r\n        emit Approval(msg.sender, _spender, _value);\r\n        return true;\r\n    }\r\n\r\n    function transferFrom(address _from, address _to, uint256 _value) public returns (bool success) {\r\n        require(_value <= balanceOf[_from], 'not enough ether');\r\n        require(_value <= allowance[_from][msg.sender], 'over allowance');\r\n        balanceOf[_from] -= _value;\r\n        balanceOf[_to] += _value;\r\n        allowance[_from][msg.sender] -= _value;\r\n        emit Transfer(_from, _to, _value);\r\n        return true;\r\n    }\r\n}\r\n\r\n\r\n\r\n",
  "sourcePath": "C:\\Users\\jaxco\\Desktop\\HarvestByte\\Exchange\\src\\contracts\\Token.sol",
  "compiler": {
    "name": "solc",
    "version": "0.5.16+commit.9c3226ce.Emscripten.clang"
  },
  "schemaVersion": "3.0.23",
  "updatedAt": "2020-03-16T17:23:19.031Z",
  "devdoc": {
    "methods": {}
  },
  "userdoc": {
    "methods": {}
  }
}